:100000000C946A090C9487090C9487090C9487094D
:100010000C9487090C9487090C9487090C94870920
:100020000C9487090C9487090C9487090C94870910
:100030000C9487090C9487090C94D1130C948709AC
:100040000C9487090C9487090C94680A0C9487090E
:100050000C9487090C9487090C9487090C948709E0
:100060000C9487090C9487090000FC0000FC8007B1
:10007000FCE01FFCF03FFCF87FFCF87FFCCCCFFCE1
:100080008CC7FC1CE3FC3CF0FC7CF8FC7CF8FC3CE2
:10009000F0FC1CE3FC8CC7FCC68FFDE21FFDF33FA8
:1000A000FFFFFFFFFFFFFFC00FFC8007FC0000FC0D
:1000B000000000000000000000000C0C0C0C0C0CF8
:1000C0000C0C0C0C9A02680236020402D201A00148
:1000D0006E013C010A01D800FCF3FEF7FFFF0FFEA2
:1000E00007FE07FE07FE0FFEFFFFFEFFFCFF00FE00
:1000F00000FE00FE00FE00FE00FE00FE00FE00FE10
:1001000000FE00FE00FE00FE00FEFCF3FEF7FFFF17
:100110000FFF07FE07FE07FE07FE0FFFFEF7FCF3CB
:10012000FEF70FFF07FE07FE07FE07FE07FE07FEAE
:1001300007FE07FE0FFFFFFFFEF7FCF3FFFFFFFFC9
:10014000FFFF00FE00FE00FE00FF80F7C0F3E0F1BD
:10015000F0F070F038F01CF01CF01CF01CF01CF0FB
:100160001CF01CF01CF01CF01CF01CF01CF0FCF34C
:10017000FEF7FFFF0FFF07FE07FE07F007F007F08F
:10018000FFF3FFF7FFFF07FE07FE07FE07FE07FE70
:1001900007FE07FE07FE07FE0FFFFFFFFEF7FCF35B
:1001A000FFFFFFFFFFFF07F007F007F007F007F082
:1001B00007F0FFF3FFF7FFFF00FE00FE00FE00FE6A
:1001C00000FE00FE00FE07FE07FE0FFFFFFFFEF72A
:1001D000FCF3E0F3F0F3F8F3FCF39EF38FF387F313
:1001E00087F387F387F3FFFFFFFFFFFF80F380F3C1
:1001F00080F380F380F380F380F380F380F380F367
:1002000080F380F3FCF3FEF7FFFF0FFF07FE07FE0E
:1002100000FE00FE00FFF0F7F0F7F0F700FF00FE31
:1002200000FE00FE00FE00FE00FE07FE07FE0FFFC0
:10023000FFFFFEF7FCF3FCF3FEF7FFFF07FF07FEEF
:1002400000FE00FE00FE00FF80F7C0F3E0F1F0F0DA
:1002500078F03CF01EF00FF007F007F007F007F021
:1002600007F0FFFFFFFFFFFFE0F0F0F0F8F0FCF019
:10027000EEF0E6F0E0F0E0F0E0F0E0F0E0F0E0F0EA
:10028000E0F0E0F0E0F0E0F0E0F0E0F0E0F0E0F0EE
:10029000E0F0E0F0FFFFFFFFFFFFFCF3FEF7FFFFE2
:1002A0000FFF07FE07FE07FF87FFC7FFE7FE77FE8A
:1002B0003FFE1FFE0FFE07FE07FE07FE07FE07FEBE
:1002C00007FE07FE0FFFFFFFFEF7FCF30000000034
:1002D0000000000000000C0C0C0C0C0C0C0C0C0CA6
:1002E0005C0434040C04E403BC0394036C03440373
:1002F0001C03F402FCF3FEF707FE03FC03FC03FC03
:1003000007FEFEFFFCFF00FC00FC00FC00FC00FC04
:1003100000FC00FC03FC07FEFEF7FCF3FCF3FEF719
:1003200007FE03FC03FC03FC07FEFEF7FEF707FED7
:1003300003FC03FC03FC03FC03FC03FC03FC07FEBF
:10034000FEF7FCF3FFFFFFFF00FC00FC00FE00F7E0
:1003500080F3C0F1E0F070F038F018F018F018F009
:1003600018F018F018F018F018F018F0FCF3FEF779
:1003700007FE03FC03F003F003F0FFF3FFF707FEB3
:1003800003FC03FC03FC03FC03FC03FC03FC07FE6F
:10039000FEF7FCF3FFFFFFFF03F003F003F003F0B1
:1003A00003F0FFF3FFF700FE00FC00FC00FC00FC84
:1003B00003FC03FC03FC07FEFEF7FCF380F1C0F135
:1003C000E0F1F0F1B8F19CF18EF187F183F183F166
:1003D00083F1FFFFFFFF80F180F180F180F180F178
:1003E00080F180F1FCF3FEF707FE03FC03FC00FC48
:1003F00000FC00FEF0F7F0F700FE00FC00FC00FC43
:1004000000FC03FC03FC07FEFEF7FCF3FCF3FEF725
:1004100007FE03FC03FC00FC00FE00F780F3C0F1C4
:10042000E0F070F038F01CF00EF007F003F003F08D
:10043000FFFFFFFF60F070F078F07CF06EF066F088
:1004400060F060F060F060F060F060F060F060F02C
:1004500060F060F060F060F0FFFFFFFFFCF3FEF77C
:1004600007FE03FE03FF83FFC3FDE3FC73FC3BFCBD
:100470001FFC0FFC07FC03FC03FC03FC03FC07FE52
:10048000FEF7FCF300000000000000000000000088
:10049000000000000000000000000000000000005C
:1004A000000000000400000200000000000404003E
:1004B0000000000000000400000000000000000038
:1004C000000000000000000000000000000000002C
:1004D00000000000000A0A0A0A0A0A0A0A0A0A0AAE
:1004E0000A0E0C0A0A0A0A0A0A0A0A0E0A0A0A0A62
:1004F0000A0A0A0A080A0A02060A020E0A0A0A0A6E
:10050000080A080A0A0E0A0A080A0A0A0A0A0A0A4D
:100510000A0A0A02060C0A0A0206060A020A040865
:1005200004040A0A1414D80EB80E980E780E580E49
:10053000380E180EF80DD80DB80D980D780D580D11
:10054000380D180DF80CD80CB80C980C780C580C09
:10055000380C180CF80BD80BB80B980B780B580B01
:10056000380B180B080BE80AC80AB80AA80A880A48
:10057000780A580A380A180AF809D809C809A809CF
:1005800098097809580938091809F808E808C808C6
:10059000A80888086808480828080808E807C8075D
:1005A000A807980788076807480728071807080753
:1005B000F806D806C806A8069806880678066806CB
:1005C00048062806F805C8053CFCFF7EFCFFE70C42
:1005D000F0C30CF0C30CF0E70CF07EFCF33CFCF332
:1005E000000CF0000CF0000CF0000CF0000CF0001F
:1005F0000CF0000CF0000CF03CF0F366F8F7C31CB4
:10060000FE810CFC810CF0C30CF0660CF03C0CF08D
:10061000000CF0000CF0000CF0000CF0000CFC00E2
:100620001CFE00F8F700F0F3FCFCFEFD87FF03FF63
:1006300003FF03FF80FFC0FFF0FC30FC30FC00FC38
:1006400030FC78FC78FC30FC00FC00FC00FC00FC7A
:10065000FFFFFFFF00FC00FC00FC00FCFFFFFFFFB2
:1006600000FC00FC00FC00FCF0F0F6FFFFF6F0F0F0
:10067000F0F0F6FFFFFFFFFFF0F0F6FFFFF6F0F0FF
:10068000F0F0F6FFFFF6F0F0C0C0C0E06070303868
:10069000181C0C0E06070303F0F0F0F0F0F0F0F079
:1006A000F0F0F0F0F6FFFFF600FC00FC00FC00FCB0
:1006B00000FC00FC00FC00FCFFFFFFFF00FC00FC56
:1006C00000FC00FC00FC00FCFCFCFCFCFCFCFCFC5A
:1006D000FCFCFCFCFFFFFFFF00FC00FC00FC00FC3E
:1006E00030FC30FC30FC30FCFFFFFFFF30FC30FC06
:1006F00030FC30FC00FC00FCC3C7CEDCF8F0F0F0AE
:10070000F0F0F0F8DCCEC7C3F0F8DCCEC7C3C3C34B
:10071000C3C3C3C7CEDCF8F0FFFFFFFFFFFFFCFC45
:10072000FCFCFCFCFCFCFCFC87FDC7FDC7FCE0FC02
:1007300060FC70FC30FC38FC18FC1CFC0CFC0EFC53
:1007400006FC87FF83FF83FF30FC30FCFCFCFEFDD2
:10075000B3FF33FF3EFC7CFC70FCF0FD33FF37FF42
:10076000FEFDFCFC30FC30FC00F00CF30CF30CF351
:10077000FFFFFFFF0CF30CF30CF30CF3FFFFFFFF85
:100780000CF30CF30CF300F0F3F3F3F3F3F3C0C04A
:10079000C0C0C0C0C0C0C0C0FFFFFFFFFFFFFFFF61
:1007A000FFFFFFFFFCFCFFFFFCFCFEFD07FF03FF5C
:1007B00003FF07FFFEFFFCFF00FF00FF00FF00FF3D
:1007C00003FF87FFFEFDFCFCFCFCFEFD87FF03FF33
:1007D00003FF87FFFEFDFEFD87FF03FF03FF03FF0F
:1007E00003FF87FFFEFDFCFCFFFFFFFF00FF80FF14
:1007F000C0FDE0FC70FC38FC1CFC0CFC0CFC0CFC90
:100800000CFC0CFC0CFC0CFCFCFCFEFD87FF03FF4D
:1008100003FC03FCFFFCFFFD87FF03FF03FF03FF57
:1008200003FF87FFFEFDFCFCFFFFFFFF03FC03FC53
:1008300003FC03FCFFFCFFFD80FF00FF03FF03FF41
:1008400003FF87FFFEFDFCFCC0FCE0FCF0FCF8FCB5
:10085000DCFCCEFCC7FCC3FCFFFFFFFFC0FCC0FC00
:10086000C0FCC0FCC0FCC0FCFCFCFEFD87FF03FF1D
:1008700000FF80FFF0FDF0FD80FF00FF00FF00FFA4
:1008800003FF87FFFEFDFCFCFCFCFEFD87FF03FF72
:1008900000FF80FFC0FDE0FC70FC38FC1CFC0EFC7F
:1008A00007FC03FCFFFFFFFF30FC38FC3CFC3EFC78
:1008B00036FC30FC30FC30FC30FC30FC30FC30FCD2
:1008C00030FC30FCFFFFFFFFFCFCFEFD87FF83FFD9
:1008D000C3FFE3FF73FF3BFF1FFF0FFF07FF03FF94
:1008E00003FF87FFFEFDFCFC00000000FFFFC0E0EF
:1008F00070381C0E0703FFFF03FF03FF03FF87FF92
:10090000CEFDFCFC78FC30FC30FC30FC30FC30FCD4
:1009100038FC1CFC0FFC07FC00FC00FC00FC00FC8D
:1009200003FF87FFCEFDFCFC78FC30FC30FC78FC3C
:10093000FCFCCEFD87FF03FF00C000C000C000C06C
:10094000C3F0C3F0C3F0E3F1E3F133F333F31FFE7D
:100950000EDC0CCC0CCC0CCC00FC00FC00FC00FC35
:1009600003FF03FF03FF03FF86FD86FDCCFCCCFCE9
:10097000CCFC48FC78FC30FC00FC00FC00FC00FCDB
:1009800003FF03FF03FF03FF03FF03FF03FF03FF57
:1009900003FF87FFFEFF7CFF0C0C0C0CFFFF0C0C11
:1009A0000C0C0C0C0C1CF8F000FC00FC00FC00FC17
:1009B000FCFFFEFF07FC07FCFEFCFCFD80FF00FFC8
:1009C00000FF80FFFFFDFFFC00000000F3FB1F0F96
:1009D0000703030303030303FCFFFEFF07FF03FFFB
:1009E00003FF03FF03FF03FF03FF07FFFEFFFCFFFF
:1009F00000FF00FF00FF00FFFFFCFFFD83FF03FF80
:100A000003FF03FF03FF03FF03FF83FFFFFDFFFC63
:100A100003FC03FC03FC03FC00FC00FC00FC00FCEA
:100A2000FCFCFEFD87FF03FF03FF03FF03FF03FF43
:100A300003FF87FFFEFDFCFC00FC00FC00FC00FC4B
:100A4000FFFCFFFD83FF03FF03FF03FF03FF03FF23
:100A500003FF03FF03FF03FF00C000C000C000C08E
:100A60003FCFFFDFE3F9C3F0C3F0C3F0C3F0C3F03F
:100A7000C3F0C3F0C3F0C3F0FFFFFFFFFFFFFFFFB2
:100A8000FFFFFFFFFFFFFFFF03FC03FC03FC03FC72
:100A9000FFFCFFFD83FF03FF03FF83FFFFFDFFFC60
:100AA000E3FCC3FD83FF03FFF0F0C0C0FCFCF0F0EB
:100AB000F0F0F0F0F3FFDECCFCFCFFFFFCFCFFFFEE
:100AC000FFFFFFFFFFFFFFFF03FC03FC03FC03FC32
:100AD000FFFCFFFD83FF03FF03FF03FF03FF03FF93
:100AE00003FF03FF03FF03FFFCFFFEFF07FF03FFFE
:100AF00003FF03FF03FF07FFFEFFFCFF00FF00FFF4
:100B000003FF87FFFEFDFCFCF0F81C0C0C0CFFFF44
:100B10000C0C0C0C0C0C0C0C00FC00FC00FC00FC85
:100B2000FCFCFEFD87FF03FFFFFFFFFF03FC03FC50
:100B300003FF87FFFEFDFCFC00FF00FF00FF00FF3E
:100B4000FCFFFEFF07FF03FF03FF03FF03FF03FF9D
:100B500003FF07FFFEFFFCFF00FC00FC00FC00FCA5
:100B6000FCFCFEFD87FF03FF03FC03FC03FC03FC0E
:100B700003FF87FFFEFDFCFC03FC03FC03FC03FCFE
:100B8000FFFCFFFD83FF03FF03FF03FF03FF03FFE2
:100B900003FF83FFFFFDFFFC00FC00FC00FC00FCEA
:100BA000FCFCFEFD87FF03FF03FF03FF03FF83FF42
:100BB000C3FFE7FF7EFF3CFFFFFFFFFF00FF00FFDB
:100BC00080FFC0FDE0FC70FC38FC1CFC0EFC07FC48
:100BD00003FC03FCFFFFFFFF03FF03FF03FF03FF13
:100BE00086FD86FDCCFCFCFC78FC30FC30FC30FC47
:100BF00030FC30FC30FC30FC03FF03FF03FF87FFB9
:100C0000CEFDFCFC78FC30FC30FC78FCFCFCCEFD1E
:100C100087FF03FF03FF03FF03F003F003F003F07C
:100C2000C3F0C3F0C3F0E3F1F3F333F333F333F37F
:100C30001EDE0CCC0CCC0CCC03FF03FF03FF03FF28
:100C400086FD86FD86FD86FDCCFCCCFCCCFCCCFC78
:100C500048FC78FC30FC30FC03FF03FF03FF03FF7C
:100C600003FF03FF03FF03FF03FF03FF03FF03FF74
:100C700003FF87FFFEFDFCFCFFFFFFFF30FC30FCA5
:100C800030FC30FC30FC30FC30FC30FC30FC30FC04
:100C900030FC30FC30FC30FCFCFCFEFD87FF03FF29
:100CA00003FC07FCFEFCFCFD80FF00FF00FF00FFD3
:100CB00003FF87FFFEFDFCFCFFFCFFFD83FF03FF3E
:100CC00003FF83FFFFFDFFFD83FF03FF03FF03FF20
:100CD00003FF03FF03FF03FFFCFCFEFD87FF03FF91
:100CE00003FF03FF03FF03FF03FF03FF63FFE7FFB0
:100CF000FEFDFCFCC0FFC0FFFFFCFFFD83FF03FF08
:100D000003FF03FF03FF03FF03FF83FFFFFDFFFC60
:100D100003FC03FC03FC03FCFCFCFEFD87FF03FF5C
:100D200003FF03FF03FF03FF03FF03FF03FF03FFB3
:100D300003FF87FFFEFDFCFC07FC0FFC0FFC1BFC08
:100D40001BFC33FC33FC63FC63FCC3FCC3FC83FD72
:100D500083FD03FF03FF03FE07F80FFC0FFC1FFEDC
:100D60001BF63BF733F3F3F3E3F1C3F0C3F0C3F047
:100D700003F003F003F003F003FC03FC03FC03FCAB
:100D800003FC03FC03FC03FC03FC03FC03FC03FC6B
:100D900003FC03FCFFFFFFFF03FF83FFC3FDE3FC36
:100DA00073FC3BFC1FFC1FFC3BFC73FCE3FCC3FD22
:100DB00083FF03FF03FF03FFF0FFF0FF00FF00FFCF
:100DC00000FF00FF00FF00FF00FF00FF00FF00FF2B
:100DD00003FF87FFFEFDFCFCFFFFFFFF30FC30FC44
:100DE00030FC30FC30FC30FC30FC30FC30FC30FCA3
:100DF00030FC30FCFFFFFFFF03FF03FF03FF03FF97
:100E000003FF03FFFFFFFFFF03FF03FF03FF03FFDA
:100E100003FF03FF03FF03FFFCFCFEFD87FF03FF4F
:100E200003FC03FC03FC03FCF3FFF3FF03FF03FFDE
:100E300003FF87FFFEFDFCFCFFFFFFFF03FC03FC3D
:100E400003FC03FCFFFCFFFC03FC03FC03FC03FCB2
:100E500003FC03FC03FC03FCFFFFFFFF03FC03FC9C
:100E600003FC03FCFFFCFFFC03FC03FC03FC03FC92
:100E700003FC03FCFFFFFFFFFFFCFFFD83FF03FFFD
:100E800003FF03FF03FF03FF03FF03FF03FF03FF52
:100E900003FF83FFFFFDFFFCFCFCFEFD87FF03FF5C
:100EA00003FC03FC03FC03FC03FC03FC03FC03FC4A
:100EB00003FF87FFFEFDFCFCFFFCFFFD83FF03FF3C
:100EC00003FF83FFFFFDFFFD83FF03FF03FF03FF1E
:100ED00003FF83FFFFFDFFFCFCFCFEFD87FF03FF1C
:100EE00003FF03FFFFFFFFFF03FF03FF03FF03FFFA
:100EF00003FF03FF03FF03FF0000000000000000EA
:100F000000000000000000000000000000000000E1
:100F100000000000000000000200000100000000CE
:100F200000020200000000000000020000000000BB
:100F300000000000000000000000000000000000B1
:100F4000000000000000000000050505050505057E
:100F5000050505050507060505050505050505073C
:100F6000050505050505050504050501030501073A
:100F70000505050504050405050705050405050522
:100F8000050505050505050103060505010303051E
:100F900001050204020205050A0ACC12C412BC12A1
:100FA000B412AC12A4129C1294128C1284127C12F1
:100FB00074126C1264125C1254124C1244123C12E1
:100FC00034122C1224121C1214120C120412FC11D2
:100FD000F411EC11E411DC11D411CC11C411BC11C9
:100FE000B411AC11A4119C1194118C1184117C11B9
:100FF00074116C1164115C1154114C1144113C11A9
:1010000034112C1124111C1114110C110411FC1099
:10101000F410EC10E410DC10D410CC10C410BC1090
:10102000B410AC10A4109C1094108C1084107C1080
:1010300074106C1064105C104C103C10E6FF29FC1E
:1010400029FCE6FD20FC20FC20FC20FCC6FD29FE3E
:1010500029FC26FC20FC20FC20FEC0FDEEF1F1F076
:10106000ECE4E0E4E0E0FFE0E0FFE0E0FCFFFFFCB8
:10107000FCFFFFFFFCFFFFFCFCFFFFFCF8F8F4F4B3
:10108000F2F2F1F1FCFCFCFCFCFCFFFFE0E0E0E034
:10109000FFE0E0E0FEFEFEFEFEFEFFFFE0E0E4E437
:1010A000FFE4E4E0F9FAFCFCFCFCFAF9FCFAF9F9DB
:1010B000F9F9FAFCFFFFFFFEFEFEFEFEE0F3EBE8AF
:1010C000E4E2FAF9E4EEF5E6ECF5EEE4C0D2FFD2A4
:1010D000D2FFD2C0FDFDFDF8F8F8F8F8FFFFFFFFE2
:1010E000FFFFFEFFEEF1F1FEF0F0F1EEEEF1F1EEBA
:1010F000F1F1F1EEFFF0E8E4E2E2E2E2EEF1E1EF3D
:10110000F1F1F1EEFFE1E1EFF0F1F1EEE8ECEAE907
:10111000FFE8E8E8EEF1F0ECF0F0F1EEEEF1F0E8E7
:10112000E4E2E1FFE4E6E5E4E4E4E4FFEEF1F9F50E
:10113000F3F1F1EEF0F0FFF8F4F2F1FFF1F1EAEA89
:10114000E4E4E2E2E0E0F1EAE4E4EAF18080C9C943
:10115000D5D5A2A2E0E0F1F1EAEAE4E4E0E0F1F1C1
:10116000F1F1F1FEF2F2FFF2F2F2F2FCE0E0FEE168
:10117000EEF0F0EFF0F0FDF3F1F1F1F1FEF1F1F14D
:10118000F1FEF0F0EFF1F1F1F1EFE1E1E0E0EEF18D
:10119000F1F1F1EEE0E0EFF1F1F1F1F18080B7C9AA
:1011A000C9C9C9C9FFFFFFFFFFFFFFFFE1E1EFF181
:1011B000F1EFE9F1FCF8FEFCFCFCFDFAFEFFFEFF9E
:1011C000FFFFFFFFE1E1EFF1F1F1F1F1FEF1F1F1EC
:1011D000FEF0F1EEFCF2F2FFF2F2F2F2E0E0EEF1FC
:1011E000FFE1F1EEF0F0FEF1F1F1F1FEE0E0EEF101
:1011F000E1E1F1EEE1E1EFF1F1F1F1EFE0E0EEF14B
:10120000F1F1F9F6FFF0E8E4E4E2E1FFF1F1EAEAF6
:10121000E4E4E4E4F1F1EAE4E4EAF1F1C1C1C9C9CA
:10122000D5D5A2A2F1F1F1EAEAEAE4E4F1F1F1F1B3
:10123000F1F1F1EEFFE4E4E4E4E4E4E4EEF1E1EE04
:10124000F0F0F1EEEFF1F1EFF1F1F1F1EEF1F1F19A
:10125000F1F1EEF8EFF1F1F1F1EFE1E1EEF1F1F1A1
:10126000F1F1F1EEE3E3E5E5E9E9F1F1E3E3D5D509
:10127000C9C9C1C1E1E1E1E1E1E1E1FFF1E9E5E392
:10128000E5E9F1F1FCF0F0F0F0F0F1EEFFE4E4E478
:10129000E4E4E4FFF1F1F1FFF1F1F1F1EEF1E1E16C
:1012A000FDF1F1EEFFE1E1EFE1E1E1E1FFE1E1EF8D
:1012B000E1E1E1FFEFF1F1F1F1F1F1EFEEF1E1E167
:1012C000E1E1F1EEEFF1F1EFF1F1F1EFEEF1F1FF2C
:1012D000F1F1F1F111241FBECFEFD8E0DEBFCDBF99
:1012E00011E0A0E0B1E0E2E2FFE202C005900D9261
:1012F000A43CB107D9F725E0A4ECB1E001C01D92F0
:10130000A33EB207E1F70E949E0B0C948F170C943A
:101310000000E1EDF1E0108211821282138214824A
:10132000158216821782108611861286138686EA27
:101330000E94FD0D8CE20E94770E8DE00E94770ED8
:101340000E945E0E86EA0E94FD0D8DE20E94770EDD
:1013500088E00E94770E0E945E0E86EA0E94FD0DD4
:1013600081E30E94770E87E00E94770E0E945E0E56
:1013700086EA0E94FD0D88E30E94770E80E00E94BD
:10138000770E0E945E0E0895DF92EF92FF920F9308
:101390001F93CF93DF9386EA0E94FD0D82E30E94A4
:1013A000770E87EA0E945B0E0E94A20ED82E0E9442
:1013B000A20E082F0E94A20EE82E0E94A20EF82E66
:1013C0000E94A20ED82F0E94C50EC82F0E945E0E4A
:1013D00010E0102F00270D29012E000C220B330BDB
:1013E0004F2D50E0542F44274E29052E000C660B3C
:1013F000770B8C2F90E0982F88278D2B092E000CCF
:10140000AA0BBB0BE1EDF1E0008311832283338350
:10141000448355836683778380879187A287B387C8
:10142000DF91CF911F910F91FF90EF90DF90089582
:101430006091D1017091D2018091D3019091D4013A
:1014400008956091D5017091D6018091D701909156
:10145000D80108956091D9017091DA018091DB0182
:101460009091DC010895882319F0813029F00895C6
:1014700085B18B7F85B9089585B1846085B908955C
:1014800084B18C6284B984B18F7E84B980E00E947B
:10149000330A8CB58D658CBD8DB58E7F8DBD84B1C5
:1014A000886284B984B18F7E84B981E00E94330A56
:1014B00008951092C50087E68093C40086E080936B
:1014C000C20088E98093C10080E88093C00008953D
:1014D0001F920F920FB60F9211240F900FBE0F9014
:1014E0001F90189578940E949B0D0E94400A0E94BC
:1014F000150F0E94A3130E940B0C0E94590A0E9410
:10150000890908954F925F926F927F928F929F9276
:10151000AF92BF92CF92DF92EF92FF92CF93C82FFC
:101520000E94180A2B013C010E94210A4B015C0118
:101530000E942A0A0E94FD136B017C0120E030E822
:101540004BE354E40E945C14181684F120E030E868
:101550004BE354ECC701B6010E94F613882334F123
:1015600088E888168AEF98068FEFA806B806BCF0C0
:1015700088E848168AEF58068FEF680678068CF0E0
:1015800089E7881685E09806A104B10464F489E728
:10159000481685E05806610471043CF407C0C0E0B9
:1015A00005C0C1E003C0C2E001C0C3E08C2FCF91F1
:1015B000FF90EF90DF90CF90BF90AF909F908F9073
:1015C0007F906F905F904F900895EF920F938111ED
:1015D00050C00E94360F0E94BA0CE12C03E029E1B2
:1015E00044E069E00E9421130E94050D29E144E0D6
:1015F00062E30E9421130E94500D29E144E06BE553
:101600000E94211301E020E149E069E282E191E0DA
:101610000E94211320E149E062E582E191E00E940D
:10162000211302E020E149E265E084E191E00E94BB
:10163000211341E26FE780E00E94421344E26FE72A
:1016400080E00E94421346E66FE384E20E94541356
:1016500000E02FE34FE760E080E00E94661308E1BE
:1016600022E148E650E065E28AE60E94C20F0E944D
:10167000590F0F91EF9008958F929F92AF92BF9262
:10168000CF92DF92EF92FF920F931F93CF93DF934E
:10169000FA0180809180A280B3806B017C01C81820
:1016A000D908EA08FB08E9ECCE16D104E104F104FC
:1016B00090F07901EA014B015C010E94C409F80134
:1016C0008081F70180830E94820AF80180838882EA
:1016D0009982AA82BB82DF91CF911F910F91FF90D7
:1016E000EF90DF90CF90BF90AF909F908F90089534
:1016F0000F931F93CF93DF93EC018B010E94BB13D9
:10170000688379838A839B8380E011C0E82FF0E0AF
:10171000EE0FFF1FEE0FFF1FE00FF11F48815981F1
:101720006A817B8140835183628373838F5F8230C0
:1017300068F3DF91CF911F910F910895CF93DF93BD
:10174000CDB7DEB72E970FB6F894DEBF0FBECDBF74
:101750000E94720A40E169E281E20E94610CBE01CE
:101760006B5F7F4FCE0101960E94780B1D861E860F
:101770000E94BB1369837A838B839C830E94750CC0
:1017800069817A818B819C818E01035F1F4F9E014D
:10179000225F3F4FAE014B5F5F4F0E943C0B8D8538
:1017A000813049F028F08230A9F0833019F1E0CF80
:1017B0000E94E50ADDCF0E94360FEE24E39402E09A
:1017C00028E040E060E08DE191E00E9421130E945A
:1017D000590FCECF0E94360F6894EE24E1F802E054
:1017E00028E040E060E084E291E00E9421130E9442
:1017F000590FBECF0E94360F0F2EF3E0EF2EF02DC3
:1018000002E028E040E060E08BE291E00E942113DA
:101810000E94590FADCF8EED0E94A10D80E00E9475
:10182000770E80E80E94770E0E945E0E0895EF9278
:10183000FF920F931F93CF93DF93C82F8B01D42F69
:101840008EED0E94A10D8C2F0E94770E0E945E0EDD
:101850008FED0E94A10DC0E008C07801EC0EF11CD4
:101860000E94A20EF7018083CF5F2C2F30E08D2FD6
:1018700090E001972817390784F38D2F90E00197A6
:10188000E801C80FD91F0E94C50E88830E945E0E12
:10189000DF91CF911F910F91FF90EF900895CF931B
:1018A000DF93D82FC62F8EED0E94A10D8D2F0E94A1
:1018B000770E8C2F0E94770E0E945E0EDF91CF91E3
:1018C0000895CF93DF93C82FD62F642F606880E0F0
:1018D0000E944F0C6D2F81E00E944F0C6C2F82E014
:1018E0000E944F0CDF91CF910895CF93DF9300D0EA
:1018F0001F92CDB7DEB719821A821B8243E0BE0168
:101900006F5F7F4F80E00E94170C2981822F8077C4
:1019100090E095958795959587959595879595955B
:101920008795EDEDF5E080832F7021832A81822F4A
:10193000807790E09595879595958795959587956E
:101940009595879582832F7023832B81822F8073B7
:1019500090E095958795959587959595879595951B
:10196000879584832F7025830F900F900F90DF91C0
:10197000CF910895CF92DF92FF920F931F93CF9351
:10198000DF9300D000D0CDB7DEB70F2EFDEDCF2E08
:10199000F5E0DF2EF02DF60184811F928F9302E394
:1019A00011E01F930F931F926894FF24F1F8FF92A8
:1019B000CE0101969F938F930E949714F601858123
:1019C0001F928F931F930F931F92FF92CE01039646
:1019D0009F938F930E9497148981EAECF1E08083B2
:1019E0008B81818312820FB6F894DEBF0FBECDBF0C
:1019F000CF010F900F900F900F90DF91CF911F911B
:101A00000F91FF90DF90CF900895CF92DF92FF92D9
:101A10000F931F93CF93DF9300D000D0CDB7DEB7E5
:101A20000F2EFDEDCF2EF5E0DF2EF02DF601828199
:101A30001F928F9302E311E01F930F931F926894FC
:101A4000FF24F1F8FF92CE0101969F938F930E949D
:101A50009714F60183811F928F931F930F931F9208
:101A6000FF92CE0103969F938F930E9497148981D2
:101A7000E7ECF1E080838B81818312820FB6F894CA
:101A8000DEBF0FBECDBFCF010F900F900F900F9014
:101A9000DF91CF911F910F91FF90DF90CF9008952C
:101AA000CF92DF92FF920F931F93CF93DF9300D0DB
:101AB00000D0CDB7DEB70F2EFDEDCF2EF5E0DF2E37
:101AC000F02DF60180811F928F9302E311E01F93A6
:101AD0000F931F926894FF24F1F8FF92CE010196B4
:101AE0009F938F930E949714F60181811F928F9389
:101AF0001F930F931F92FF92CE0103969F938F9394
:101B00000E9497148981E4ECF1E080838B818183CA
:101B100012820FB6F894DEBF0FBECDBFCF010F907B
:101B20000F900F900F90DF91CF911F910F91FF9029
:101B3000DF90CF9008951092B9008CE08093B800A8
:101B400008950F931F9394EA9093BC004FEF50E0D9
:101B500060E070E002C0B901A8019091BC00992337
:101B600064F08A019B010150110921093109452BBB
:101B7000462B472B81F7B901A801452B462B472B54
:101B800081F19091B900987F983011F0903159F51A
:101B90008093BB0084E88093BC008FEF90E0A0E0CE
:101BA000B0E002C0DB01CA012091BC00222364F036
:101BB000AC01BD014150510961097109892B8A2B82
:101BC0008B2B81F7DB01CA01892B8A2B8B2B69F0C8
:101BD0008091B900887F883151F0803451F480E0E1
:101BE00009C081E007C081E005C081E003C080E05A
:101BF00001C081E01F910F9108950F931F9394EA04
:101C00009093BC004FEF50E060E070E002C0B9017B
:101C1000A8019091BC00992354F08A019B010150C6
:101C2000110921093109452B462B472B81F790914A
:101C3000B900987F983011F0903109F78093BB007C
:101C400094E89093BC004FEF50E060E070E002C079
:101C5000B901A8019091BC00992354F08A019B011D
:101C60000150110921093109452B462B472B81F7DA
:101C70009091B900987F903211F09835C9F494E9A9
:101C80009093BC004FEF50E060E070E002C0B901FB
:101C9000A8019091BC0094FFB2CF8A019B01015032
:101CA000110921093109452B462B472B81F7A7CF75
:101CB0001F910F9108950E94A10D089584E98093CA
:101CC000BC008FEF90E0A0E0B0E002C0DB01CA01F1
:101CD0002091BC0024FF0AC0AC01BD014150510954
:101CE00061097109892B8A2B8B2B81F708958093C9
:101CF000BB0084E88093BC008FEF90E0A0E0B0E0F0
:101D000002C0DB01CA012091BC00222364F0AC01B7
:101D1000BD014150510961097109892B8A2B8B2B17
:101D200081F7DB01CA01892B8A2B8B2B39F080913B
:101D3000B900887F883221F081E0089581E008951C
:101D400080E0089584EC8093BC008FEF90E0A0E0E9
:101D5000B0E002C0DB01CA012091BC00222364F084
:101D6000AC01BD014150510961097109892B8A2BD0
:101D70008B2B81F7DB01CA01892B8A2B8B2B19F066
:101D80008091BB00089580E0089584E88093BC00B2
:101D90008FEF90E0A0E0B0E002C0DB01CA0120912B
:101DA000BC00222364F0AC01BD014150510961091E
:101DB0007109892B8A2B8B2B81F7DB01CA01892BB7
:101DC0008A2B8B2B19F08091BB00089580E0089539
:101DD000CF93C82F88E70E94FD0D80E00E94770E08
:101DE0008C2F0E94770E0E945E0ECF9108950F9364
:101DF0001F93CF93DF938C01D62F88E70E94FD0DB0
:101E000080E00E94770EC0E007C0F801EC0FF11DE2
:101E100080810E94770ECF5FCD17B8F30E945E0ECF
:101E2000DF91CF911F910F910895CF93DF93CDB79D
:101E3000DEB762970FB6F894DEBF0FBECDBF82E16A
:101E4000E0E0F1E0DE01119601900D928A95E1F754
:101E500062E1CE0101960E94F70E62960FB6F894E9
:101E6000DEBF0FBECDBFDF91CF91089590E00FC0D0
:101E700020E8929FF0011124E352FE4FE80FF11D7C
:101E800010828F5F01C080E0882394F79F5F9830B5
:101E9000D0F30895CF93C82F88E70E94FD0D80E40A
:101EA0000E94770E8C2F0E94770E0E945E0ECF91BB
:101EB00008950F931F93CF93DF9300E023C080EB2F
:101EC000800F0E94E80E12E017C0812F8F700E94D1
:101ED000E80E812F82958F70805F0E94E80E229716
:101EE00020E8029FC001112483529E4FC80FD91FC2
:101EF00088810E944A0F1F5FC12FD0E0C238D105F0
:101F000024F30F5F0830D8F2DF91CF911F910F912A
:101F10000895262F26952695269530E0A901440F91
:101F2000551F440F551F440F551F70E0641B750B60
:101F300041E050E002C0440F551F6A95E2F7F901F5
:101F4000F695FE2FEE27F795E795E352FE4FE80F43
:101F5000F11D8081482B40830895683088F421E08A
:101F600030E0062E02C0220F331F0A94E2F790E001
:101F70008223932302C0959587956A95E2F7089589
:101F800080E008955F926F927F928F929F92AF92BE
:101F9000BF92CF92DF92EF92FF920F931F93CF9356
:101FA000DF93A82E962E6A01622E502E0E2D88E009
:101FB000281729F0722E76947694769401C0712CAD
:101FC000862D877059F0862D86958695869590E0AA
:101FD0000196B82EBB0CBB0CBB0C01C0B62C162D49
:101FE000E12CF12C812C55C0F601EE0DFF1DD49192
:101FF000772061F0781009C0872D880F880F880F2F
:10200000162D181B88248A9401C018E08394C0E020
:102010003BC06C2F8D2F0E94AD0F8823A1F1F701DB
:10202000EE0FFF1FEE0FFF1FEE0FFF1FCF018C0FF4
:10203000911D2B2D30E0B9010E9461144A2D480FEB
:10204000CF01B9010E946114690D0023C9F001306C
:1020500029F48FE7861B642F482F12C0023039F411
:102060008FE7841B482F8FE3861B682F09C003303E
:1020700029F48FE3841B462F682F02C060E040E004
:10208000842F0E94890FCF5FC11718F28FEFE81AD3
:10209000F80AB59CC001112499230CF40796959574
:1020A00087959595879595958795E816F90608F48F
:1020B0009BCFDF91CF911F910F91FF90EF90DF9019
:1020C000CF90BF90AF909F908F907F906F905F90D8
:1020D00008953F924F925F926F927F928F929F925C
:1020E000AF92BF92CF92DF92EF92FF920F931F9326
:1020F000CF93DF93CDB7DEB75C01D62E542E422EA0
:10210000302E6DB67EB6FC0101900020E9F73197C4
:10211000E81BF90BCE2E8DB79EB78E1B91090FB61B
:10212000F8949EBF0FBE8DBF01964C0180E069C040
:10213000F501E80FF11D90812FEB290F2A3128F4CA
:10214000F401E80FF11D20835BC02FE9290F2A312C
:1021500030F49754F401E80FF11D908351C020ED45
:10216000290F2A3030F49C5FF401E80FF11D9083B1
:1021700047C02FED290F253030F4935EF401E80FAE
:10218000F11D90833DC029ED290F233030F4945E7A
:10219000F401E80FF11D908333C025ED290F2530A0
:1021A00030F4955EF401E80FF11D908329C026EC10
:1021B000290F223030F49F5EF401E80FF11D908367
:1021C0001FC09D3331F49DE4F401E80FF11D9083AD
:1021D00017C09F3331F49EE4F401E80FF11D9083A2
:1021E0000FC09E3F31F49FE4F401E80FF11D90838E
:1021F00007C09F3F29F490E5F401E80FF11D90839B
:102200008F5F8C1508F494CF10E027C0F501E10F23
:10221000F11D8081803219F495E0D90E1DC0F401C2
:10222000E10FF11D608170E0FB01EE0FFF1FE6562C
:10223000F04F45915491FB01E75BF04FF490FB01A7
:10224000E850F14F6491650DE32C08E02F2D8D2DA2
:102250000E94C20FF40CDF0C1F5F1C15B8F20FB602
:10226000F8947EBE0FBE6DBEDF91CF911F910F918E
:10227000FF90EF90DF90CF90BF90AF909F908F90A6
:102280007F906F905F904F903F9008953F924F9254
:102290005F926F927F928F929F92AF92BF92CF92F6
:1022A000DF92EF92FF920F931F93CF93DF93CDB7FF
:1022B000DEB75C01D62E542E422E302E6DB67EB681
:1022C000FC0101900020E9F73197E81BF90BCE2EB5
:1022D0008DB79EB78E1B91090FB6F8949EBF0FBEA7
:1022E0008DBF01964C0180E069C0F501E80FF11D3A
:1022F00090812FEB290F2A3128F4F401E80FF11D0A
:1023000020835BC02FE9290F2A3130F49754F40160
:10231000E80FF11D908351C020ED290F2A3030F4D1
:102320009C5FF401E80FF11D908347C02FED290F4A
:10233000253030F4935EF401E80FF11D90833DC029
:1023400029ED290F233030F4945EF401E80FF11DDC
:10235000908333C025ED290F253030F4955EF401CC
:10236000E80FF11D908329C026EC290F223030F4AC
:102370009F5EF401E80FF11D90831FC09D3331F47F
:102380009DE4F401E80FF11D908317C09F3331F4F1
:102390009EE4F401E80FF11D90830FC09E3F31F4DD
:1023A0009FE4F401E80FF11D908307C09F3F29F4DB
:1023B00090E5F401E80FF11D90838F5F8C1508F410
:1023C00094CF10E027C0F501E10FF11D808180322C
:1023D00019F49AE0D90E1DC0F401E10FF11D6081DE
:1023E00070E0FB01EE0FFF1FEA5DFA4F459154913B
:1023F000FB01EB52FB4FF490FB01EC57FB4F649158
:10240000650DE32C00E12F2D8D2D0E94C20FF40CE1
:10241000DF0C1F5F1C15B8F20FB6F8947EBE0FBE1E
:102420006DBEDF91CF911F910F91FF90EF90DF90E4
:10243000CF90BF90AF909F908F907F906F905F9064
:102440004F903F9008953F924F925F926F927F928C
:102450008F929F92AF92BF92CF92DF92EF92FF92B4
:102460000F931F93CF93DF93CDB7DEB75C01D62ECA
:10247000542E422E302E6DB67EB6FC010190002007
:10248000E9F73197E81BF90BCE2E8DB79EB78E1B5F
:1024900091090FB6F8949EBF0FBE8DBF01964C01F7
:1024A00080E00CC0F501E80FF11D908190539A3047
:1024B00020F4F401E80FF11D90838F5F8C1590F3E9
:1024C00010E027C0F501E10FF11D8081803219F481
:1024D0009EE0D90E1DC0F401E10FF11D608170E096
:1024E000FB01EE0FFF1FE052FD4F45915491FB01A0
:1024F000EA52FD4FF490FB01E453FD4F6491650DEA
:10250000E32C04E12F2D8D2D0E94C20FF40CDF0C63
:102510001F5F1C15B8F20FB6F8947EBE0FBE6DBEDD
:10252000DF91CF911F910F91FF90EF90DF90CF90AF
:10253000BF90AF909F908F907F906F905F904F90E3
:102540003F9008953F924F925F926F927F928F9249
:102550009F92AF92BF92CF92DF92EF92FF920F9332
:102560001F93CF93DF93CDB7DEB75C01D62E542EE9
:10257000422E302E6DB67EB6FC0101900020E9F7A8
:102580003197E81BF90BCE2E8DB79EB78E1B9109A4
:102590000FB6F8949EBF0FBE8DBF01964C0180E030
:1025A0000CC0F501E80FF11D908190539A3020F492
:1025B000F401E80FF11D90838F5F8C1590F310E00C
:1025C00027C0F501E10FF11D8081803219F49EE0F2
:1025D000D90E1DC0F401E10FF11D608170E0FB0117
:1025E000EE0FFF1FEC53FF4F45915491FB01E65452
:1025F000FF4FF490FB01E055FF4F6491650DE32C14
:1026000009E12F2D8D2D0E94C20FF40CDF0C1F5FEE
:102610001C15B8F20FB6F8947EBE0FBE6DBEDF91EA
:10262000CF911F910F91FF90EF90DF90CF90BF90CF
:10263000AF909F908F907F906F905F904F903F9062
:102640000895EF920F93302F283029F40E2D232F69
:102650000E94691014C0203129F40E2D232F0E94EE
:1026600046110DC0243129F40E2D232F0E94231270
:1026700006C0293121F40E2D232F0E94A2120F91A2
:10268000EF9008951F93CF93DF93C82FD62F142F69
:1026900005C0612F8C2F0E94890FCF5FCD17C8F323
:1026A000DF91CF911F9108951F93CF93DF93C82F90
:1026B000D62F142F05C06C2F812F0E94890FCF5F5A
:1026C000CD17C8F3DF91CF911F910895EF92FF923C
:1026D0000F931F93CF93DF93F82ED62FE22E182F50
:1026E000140F462F612F0E944213CD2FCE0D4FEFB6
:1026F0004C0F612F8F2D0E9442134F2D6C2F8D2F69
:102700000E945413412F6C2F8D2F0E9454130023CD
:1027100099F0C1E0CD0F06C04C2F612F8F2D0E9484
:102720004213CF5F2C2F30E08E2D90E08D0F911D46
:1027300001972817390784F3DF91CF911F910F91EB
:10274000FF90EF9008951092CD011092CE0110925B
:10275000CF011092D00116BC8EE387BD82E084BD0C
:1027600084E085BDEEE6F0E080818260808385B301
:10277000827085BB0895CF93CFB7C078F8946091ED
:10278000CD017091CE018091CF019091D00120E0D8
:1027900030E0A9010E947514CC2309F07894CF9100
:1027A00008951F920F920FB60F9211248F939F934B
:1027B000AF93BF938091CD019091CE01A091CF01B5
:1027C000B091D0010196A11DB11D8093CD019093D0
:1027D000CE01A093CF01B093D001BF91AF919F9153
:1027E0008F910F900FBE0F901F9018950E94381474
:1027F00008F481E00895E89409C097FB3EF49095B1
:102800008095709561957F4F8F4F9F4F9923A9F0C9
:10281000F92F96E9BB279395F69587957795679558
:10282000B795F111F8CFFAF4BB0F11F460FF1BC09C
:102830006F5F7F4F8F4F9F4F16C0882311F096E92F
:1028400011C0772321F09EE8872F762F05C06623DD
:1028500071F096E8862F70E060E02AF09A95660F96
:10286000771F881FDAF7880F9695879597F908954F
:10287000990F0008550FAA0BE0E8FEEF1616170691
:10288000E807F907C0F012161306E407F50798F0F9
:10289000621B730B840B950B39F40A2661F0232B12
:1028A000242B252B21F408950A2609F4A140A6958E
:1028B0008FEF811D811D08950E94381408F48FEF59
:1028C0000895AA1BBB1B51E107C0AA1FBB1FA61777
:1028D000B70710F0A61BB70B881F991F5A95A9F7C9
:1028E00080959095BC01CD010895A1E21A2EAA1BF6
:1028F000BB1BFD010DC0AA1FBB1FEE1FFF1FA217B0
:10290000B307E407F50720F0A21BB30BE40BF50BAC
:10291000661F771F881F991F1A9469F76095709535
:10292000809590959B01AC01BD01CF010895AEE06B
:10293000B0E0EDE9F4E10C9466170D891E898F89EA
:10294000988D26E02C831A83098397FF02C080E0CC
:1029500090E801979E838D83AE01455E5F4F698D40
:102960007A8DCE0101960E94C7144D815E8157FD7C
:102970000AC02F813885421753070CF49A01F801D9
:10298000E20FF31F10822E96E4E00C948217ABE066
:10299000B0E0EDECF4E10C9458176C017B018A0176
:1029A000FC0117821682838181FFCCC1CE01019682
:1029B0003C01F6019381F70193FD859193FF81918D
:1029C0007F01882309F4BAC1853239F493FD8591DA
:1029D00093FF81917F01853229F4B60190E00E9436
:1029E000BE16E7CF912C212C312CFFE1F315D8F046
:1029F0008B3279F038F4803279F08332A1F4232DD0
:102A000020611DC08D3261F0803369F4232D216077
:102A100016C0832D8260382EE32DE4603E2E2AC03E
:102A2000F32DF8601DC037FC2DC020ED280F2A3093
:102A300040F08E32B9F436FC81C1232D2064322E51
:102A400019C036FE06C08AE0989E200D1124922EF1
:102A500011C0EAE02E9E200D1124222EF32DF062EB
:102A60003F2E08C08C3621F4832D8068382E02C09A
:102A7000883641F4F70193FD859193FF81917F01A1
:102A80008111B3CF982F9F7D9554933028F40C5F1C
:102A90001F4F9FE399830DC0833631F0833771F068
:102AA000833509F059C021C0F801808189830E5F08
:102AB0001F4F88248394912C530113C02801F2E006
:102AC0004F0E511CF801A080B18036FE03C0692D65
:102AD00070E002C06FEF7FEFC5010E94B3164C019A
:102AE0008201F32DFF773F2E16C0280122E0420E0F
:102AF000511CF801A080B18036FE03C0692D70E042
:102B000002C06FEF7FEFC5010E94A8164C01F32DA4
:102B1000F0683F2E820133FC1BC0822D90E08816A6
:102B20009906B0F4B60180E290E00E94BE162A94A5
:102B3000F4CFF50137FC859137FE81915F01B60135
:102B400090E00E94BE1621102A9421E0821A91087A
:102B50008114910471F7E8C0843611F0893641F58B
:102B6000F80137FE07C060817181828193810C5F1B
:102B70001F4F08C060817181072E000C880B990BD4
:102B80000E5F1F4FF32DFF763F2E97FF09C09095E4
:102B90008095709561957F4F8F4F9F4FF0683F2EC6
:102BA0002AE030E0A3010E94FA16882E861845C05C
:102BB000853731F4232D2F7EB22E2AE030E025C058
:102BC000932D997FB92E8F36C1F018F4883579F09E
:102BD000B5C0803719F0883721F0B0C0E92FE06127
:102BE000BE2EB4FE0DC0FB2DF460BF2E09C034FE16
:102BF0000AC0292F2660B22E06C028E030E005C0AA
:102C000020E130E002C020E132E0F801B7FE07C069
:102C100060817181828193810C5F1F4F06C060814A
:102C2000718180E090E00E5F1F4FA3010E94FA16B1
:102C3000882E8618FB2DFF773F2E36FE0DC0232DE4
:102C40002E7FA22E891458F434FE0BC032FC09C02A
:102C5000832D8E7EA82E05C0B82CA32C03C0B82CC3
:102C600001C0B92CA4FE0FC0FE01E80DF11D80814A
:102C7000803321F49A2D997EA92E09C0A2FE06C0A8
:102C8000B394B39404C08A2D867809F0B394A3FC5E
:102C900011C0A0FE06C0B21488F4280C922C9B1818
:102CA0000EC0B21460F4B60180E290E00E94BE163D
:102CB000B394F7CFB21418F42B1802C0982C212C1F
:102CC000A4FE10C0B60180E390E00E94BE16A2FEF2
:102CD00017C0A1FC03C088E790E002C088E590E03F
:102CE000B6010CC08A2D867859F0A1FE02C08BE295
:102CF00001C080E2A7FC8DE2B60190E00E94BE1602
:102D0000891438F4B60180E390E00E94BE169A94CC
:102D1000F7CF8A94F301E80DF11D8081B60190E0B0
:102D20000E94BE168110F5CF222009F442CEB601D2
:102D300080E290E00E94BE162A94F6CFF6018681CA
:102D4000978102C08FEF9FEF2B96E2E10C947417EE
:102D5000FC010590615070400110D8F78095909566
:102D60008E0F9F1F0895FC0161507040019001106B
:102D7000D8F7809590958E0F9F1F08950F931F93FE
:102D8000CF93DF93FB01238121FD03C08FEF9FEFE2
:102D90002CC022FF16C046815781248135814217FD
:102DA000530744F4A081B1819D012F5F3F4F3183D0
:102DB00020838C93268137812F5F3F4F3783268373
:102DC00014C08B01EC01FB010084F185E02D099515
:102DD000892BE1F6D80116968D919C911797019653
:102DE00017969C938E931697CE01DF91CF911F91EA
:102DF0000F910895FA01AA27283051F1203181F16D
:102E0000E8946F936E7F6E5F7F4F8F4F9F4FAF4FF2
:102E1000B1E03ED0B4E03CD0670F781F891F9A1F05
:102E2000A11D680F791F8A1F911DA11D6A0F711DB9
:102E3000811D911DA11D20D009F468943F912AE0C5
:102E4000269F11243019305D3193DEF6CF010895AD
:102E5000462F4770405D4193B3E00FD0C9F7F6CFDE
:102E6000462F4F70405D4A3318F0495D31FD4052A6
:102E7000419302D0A9F7EACFB4E0A695979587953C
:102E800077956795BA95C9F700976105710508951B
:102E90009B01AC010A2E06945795479537952795C7
:102EA000BA95C9F7620F731F841F951FA01D08955F
:102EB0002F923F924F925F926F927F928F929F924A
:102EC000AF92BF92CF92DF92EF92FF920F931F9338
:102ED000CF93DF93CDB7DEB7CA1BDB0B0FB6F894E9
:102EE000DEBF0FBECDBF09942A88398848885F8429
:102EF0006E847D848C849B84AA84B984C884DF809A
:102F0000EE80FD800C811B81AA81B981CE0FD11D7D
:102F10000FB6F894DEBF0FBECDBFED010895F89453
:022F2000FFCFE1
:102F2200AEA83FD30040A1C8DA1281FFD9F1DB403D
:102F3200A4AF3A0032372D30372D3234004D6F6452
:102F4200652042004D6F64652043004D6F6465202B
:102F520044002564004D6F6E646179005475657399
:102F6200646179005765646E6573646179005468C1
:102F720075727364617900467269646179005361A4
:102F82007475726461790053756E646179004A6187
:102F92006E75617279004665627275617279004D73
:102FA2006172636800417072696C004D6179004A18
:102FB200756E65004A756C790041756775737400AA
:102FC20053657074656D626572004F63746F6265FC
:102FD20072004E6F76656D62657200446563656D61
:042FE20062657200B2
:00000001FF
